:020000040000FA
:10000000B7EF08F01200FFFFFFFFFFFFFFFFFFFF4A
:10001000FFFFFFFFFFFFFFFF58EF07F01200FFFF9A
:10002000FFFFFFFFFFFFFFFFFFFF090000160000BB
:10003000C600000010000000F8150000EB000000F2
:1000400008000000DE150000AC0000001A000000EF
:10005000DB150000F3000000030000008F15000016
:10006000600000004C0000008F140000000600003B
:10007000000100008F1300000007000000010000D5
:100080008F12000000010000000100008F1100002D
:1000900000020000000100006C5002E0000E01D0E0
:1000A000010E00090BE0040100513C0BE842E8425C
:1000B0000D0802E10CD801D04DD808D06C5002E0F8
:1000C000000E01D0010E040901E056D81200D9CF6C
:1000D000E6FFE1CFD9FF020EE126DF6A010EDB6AFF
:1000E0000001EB6B0001EC6B0001F16BF26BF0ECCB
:1000F00001F0DF6ADF50026E036A010E025C000E3F
:10010000035821E2010EDB501EE10001EC5104E036
:10011000DE52010EDD6E15D0F76ADF34FE0BF736C6
:10012000F66E830EF626100EF7220900F5CF02F0C8
:100130000800F5CF03F004D003C0FAFF0250F96EB7
:10014000FBDFDF2AD7D7EDD8D9CFE1FFE552E7CFE4
:10015000D9FF1200020E0001EB5D0CE1A2D80401F0
:1001600000BD04D00401C80E006F03D00401880E46
:10017000006F01D025D91200040E0001F35D0CE1DF
:1001800022C46EFF6E50000804E20001050EF36FFA
:1001900003D00001030EF36F0001EB050CE10DD855
:1001A000040104BD04D00401C80E046F03D004018F
:1001B000880E046F01D004D91200D9CFE6FFE1CF39
:1001C000D9FF020EE126DE6ADD6A0001080EF15D4C
:1001D000000EF25905E2F1C0DEFFF2C0DDFF03D0F0
:1001E000080EDE6EDD6A0401049304010491010E21
:1001F000DB5004010413DFCF05F4000EDB500001D7
:10020000F15F010EDB500001F25B0001280EEF6F81
:10021000040EF06F0001F6A320D0D9CFE9FFDACFAA
:10022000EAFFEE50ED1018E0EDC0F6FFEEC0F7FF6C
:100230000800F550EFC0E9FFF0C0EAFFEF6E0001E3
:10024000EF2B000EF0230001ED2B000EEE23DF0656
:10025000010E01E2DB06E1D71ED0D9CFE9FFDACFEC
:10026000EAFFEE50ED1017E0EDC0E9FFEEC0EAFF47
:10027000EF50EFC0E9FFF0C0EAFFEF6E0001EF2B97
:10028000000EF0230001ED2B000EEE23DF06010E21
:1002900001E2DB06E2D7D9CFE1FFE552E7CFD9FF94
:1002A0001200D9CFE6FFE1CFD9FF020EE126DE6AC8
:1002B000DD6A030E04010015E76E010EE7CFDBFFD8
:1002C00001C4DFFFDE500001F127DD500001F22301
:1002D0000001280EED6F040EEE6FD9CFE9FFDACFE3
:1002E000EAFFEE50ED1017E0EDC0E9FFEEC0EAFFC7
:1002F000EF50EFC0E9FFF0C0EAFFEF6E0001EF2B17
:10030000000EF0230001ED2B000EEE23DF06010EA0
:1003100001E2DB06E2D7D9CFE1FFE552E7CFD9FF13
:1003200012000001EC510FE10401080E016F0401FD
:10033000200E026F040E036F0401840E006F04018F
:10034000840E046F3BD0040120AF25D00001F15191
:100350000401265D0001F2510401275904E226C47C
:10036000F1F027C4F2F029DF0001010EEB6F040168
:10037000080E016F0401200E026F040E036F0401CA
:10038000800E006F0401280E066F040E076F040133
:10039000C80E046F13D00001020EEB6F0401056B51
:1003A0000401C80E046F0401080E016F0401280E39
:1003B000026F040E036F0401C80E006F6D981200E7
:1003C0000001EB6B0401080E016F0401200E026FA7
:1003D000040E036F0401880E006F0401046B120009
:1003E000D9CFE6FFE1CFD9FFE652DF6A0401205101
:1003F000600BE842E842E842E842E842000903E0D4
:10040000010EDF6E54D0040121510B0A42E0010AB3
:100410002CE0090A28E0020A26E0010A22E0080A84
:1004200012E0010A0EE00F0A0AE0030A01E03ED0E2
:100430000001010EEC6F0001040EF36F38D03CD8C0
:1004400036D097D834D00001010EEC6F0001F40EC5
:10045000ED6F000EEE6F0001F6930001010EF16FDB
:1004600026D0AFD824D0FBD822D00001010EEC6FEB
:10047000040124510001ED6FEE6BF50E0001ED2734
:10048000000E0001EE230001F6930001010EF16F52
:100490000ED00001010EEC6F04012451EA6AF50F41
:1004A000E96E000EEA2222C4EFFF01D000D0E5522F
:1004B000E552E7CFD9FF1200800E0401205D58E11C
:1004C00004012351030A34E0010A10E0030A01E0A9
:1004D0004DD00001010EEC6F0001A40EED6F0F0E68
:1004E000EE6F120E0001F16FF26B40D00001010EB1
:1004F000EC6F04012251F66EF76AD890F636F736A3
:10050000790EF626100EF7220900F5CFEDF00A005D
:10051000F5CFEEF0020E0001F76AED25F66EEE5112
:10052000F7220900F5CFF1F00A00F5CFF2F01ED066
:100530000001010EEC6F04012251F66EF76AD890AB
:10054000F636F7367D0EF626100EF7220900F5CFA7
:10055000EDF00A00F5CFEEF0EDC0F6FFEEC0F7FFCC
:100560000800F5500001F16FF26B00D00001F68336
:1005700012000001010EEC6F0F0EE66E710EE66EBA
:100580000F0EE66E43EC07F0E552E552E552010E20
:10059000E66EF50EE66E000EE66E43EC07F0E552F1
:1005A000E552E55222C4F4F00401225104E10001B5
:1005B000050EF36F05D00001060EF36FEFEC03F0AC
:1005C00012000401286B0401296B040120511F0B48
:1005D000020A12E0030A0CE0010A01E032D0000135
:1005E000010EEC6F0001F6A102D00401288329D08E
:1005F0000001010EEC6F25D00001010EEC6F04012B
:1006000024510F0B080DF350036A000F026E040E05
:10061000032204012451800B01E0010E040DF3506C
:1006200000010224EF6F000E0320F06FEFC0E9FF1E
:10063000F0C0EAFFEF50040B03E00401010E286F45
:1006400000D00001EC050AE10001280EED6F040E58
:10065000EE6F0001F6930001020EF16F120004012B
:10066000220511E1040120511F0B00090CE10001DA
:10067000010EEC6F030E0401215D03E10001F68120
:1006800002D00001F691040122513EE10401205103
:100690001F0B020839E1040124510F0B000934E05B
:1006A0000001010EEC6F040124510F0B080DF350F3
:1006B000036A000F026E040E032204012451800B12
:1006C00001E0010E040DF35000010224EF6F000E53
:1006D0000320F06F030E0401215D07E1840EEFC0DB
:1006E000E9FFF0C0EAFFEF6E0FD0040124AF06D09F
:1006F000EFC0E9FFF0C0EAFFEF6A06D0880EEFC056
:10070000E9FFF0C0EAFFEF6E1200D9CFE6FFE1CFBC
:10071000D9FFE652DF6A040120511F0B010802E0F5
:10072000010EDF6E04012051600BE842E842E8420E
:10073000E842E842010802E0010EDF6E04012451A4
:1007400005E00401240502E0010EDF6EDF5042E106
:1007500004012151220A37E0030A27E0010A1CE0C4
:10076000210A11E0010A01E034D00001030EEC6F10
:100770000001CE0EED6F000EEE6F0001F69300014A
:10078000080EF16F27D00001030EEC6F0001CE0EB2
:10079000EF6F000EF06F1ED00001030EEC6F000132
:1007A000D60EEF6F000EF06F15D00001030EEC6F48
:1007B0000001D60EED6F000EEE6F0001F693000102
:1007C000070EF16F07D00001030EEC6F22C4DDF0BD
:1007D00001D000D0E552E552E7CFD9FF1200000169
:1007E000D66BC20ED76F010ED86FD96B0001DA6BD2
:1007F0000001DB6B0001080EDC6F0001C76B00011C
:1008000000000000000000000000000000000000E8
:1008100000000000000000000000000000000000D8
:1008200000000000000000000000000000000000C8
:1008300000000000000000000000000000000000B8
:020000040020DA
:080000000E040A0800000000D4
:020000040030CA
:0E000000250F391E0083800000C007E0074076
:0200000400F00A
:10000000FFFFFFFFFFFFFFFFFFFFFFFFFFFFFFFF00
:10001000FFFFFFFFFFFFFFFFFFFFFFFFFFFFFFFFF0
:10002000FFFFFFFFFFFFFFFFFFFFFFFFFFFFFFFFE0
:10003000FFFFFFFFFFFFFFFFFFFFFFFFFFFFFFFFD0
:10004000FFFFFFFFFFFFFFFFFFFFFFFFFFFFFFFFC0
:10005000FFFFFFFFFFFFFFFFFFFFFFFFFFFFFFFFB0
:10006000FFFFFFFFFFFFFFFFFFFFFFFFFFFFFFFFA0
:10007000FFFFFFFFFFFFFFFFFFFFFFFFFFFFFFFF90
:10008000FFFFFFFFFFFFFFFFFFFFFFFFFFFFFFFF80
:10009000FFFFFFFFFFFFFFFFFFFFFFFFFFFFFFFF70
:1000A000FFFFFFFFFFFFFFFFFFFFFFFFFFFFFFFF60
:1000B000FFFFFFFFFFFFFFFFFFFFFFFFFFFFFFFF50
:1000C000FFFFFFFFFFFFFFFFFFFFFFFFFFFFFFFF40
:1000D000FFFFFFFFFFFFFFFFFFFFFFFFFFFFFFFF30
:1000E000FFFFFFFFFFFFFFFFFFFFFFFFFFFFFFFF20
:1000F000FFFFFFFFFFFFFFFFFFFFFFFFFFFFFFFF10
:00000001FF
